{
  "contractName": "Pricefeed",
  "abi": [
    {
      "inputs": [],
      "stateMutability": "nonpayable",
      "type": "constructor"
    },
    {
      "anonymous": false,
      "inputs": [
        {
          "indexed": true,
          "internalType": "bytes32",
          "name": "id",
          "type": "bytes32"
        }
      ],
      "name": "ChainlinkCancelled",
      "type": "event"
    },
    {
      "anonymous": false,
      "inputs": [
        {
          "indexed": true,
          "internalType": "bytes32",
          "name": "id",
          "type": "bytes32"
        }
      ],
      "name": "ChainlinkFulfilled",
      "type": "event"
    },
    {
      "anonymous": false,
      "inputs": [
        {
          "indexed": true,
          "internalType": "bytes32",
          "name": "id",
          "type": "bytes32"
        }
      ],
      "name": "ChainlinkRequested",
      "type": "event"
    },
    {
      "inputs": [],
      "name": "rupeePrice",
      "outputs": [
        {
          "internalType": "uint256",
          "name": "",
          "type": "uint256"
        }
      ],
      "stateMutability": "view",
      "type": "function",
      "constant": true
    },
    {
      "inputs": [],
      "name": "times",
      "outputs": [
        {
          "internalType": "uint256",
          "name": "",
          "type": "uint256"
        }
      ],
      "stateMutability": "view",
      "type": "function",
      "constant": true
    },
    {
      "inputs": [],
      "name": "requestRupeePrice",
      "outputs": [
        {
          "internalType": "bytes32",
          "name": "requestId",
          "type": "bytes32"
        }
      ],
      "stateMutability": "nonpayable",
      "type": "function"
    },
    {
      "inputs": [],
      "name": "requestAll",
      "outputs": [],
      "stateMutability": "nonpayable",
      "type": "function"
    },
    {
      "inputs": [
        {
          "internalType": "bytes32",
          "name": "_requestId",
          "type": "bytes32"
        },
        {
          "internalType": "uint256",
          "name": "_price",
          "type": "uint256"
        }
      ],
      "name": "fulfillRupee",
      "outputs": [],
      "stateMutability": "nonpayable",
      "type": "function"
    }
  ],
  "bytecode": "0x60806040526001600455606460075534801561001a57600080fd5b506100296100b960201b60201c565b732f90a6d021db21e1b2a077c5a37b3c7e75d15b7e600860006101000a81548173ffffffffffffffffffffffffffffffffffffffff021916908373ffffffffffffffffffffffffffffffffffffffff1602179055507f323966613961613133626631343638373838623763633461353030613435623860098190555067016345785d8a0000600a819055506101a2565b61015c73c89bd4e1632d3a43cb03aaad5262cbe4038bc57173ffffffffffffffffffffffffffffffffffffffff166338cc48316040518163ffffffff1660e01b815260040160206040518083038186803b15801561011657600080fd5b505afa15801561012a573d6000803e3d6000fd5b505050506040513d602081101561014057600080fd5b810190808051906020019092919050505061015e60201b60201c565b565b80600260006101000a81548173ffffffffffffffffffffffffffffffffffffffff021916908373ffffffffffffffffffffffffffffffffffffffff16021790555050565b610ee1806101b16000396000f3fe608060405234801561001057600080fd5b50600436106100575760003560e01c80630965a0da1461005c5780639e3b34bf14610094578063ad4243a2146100b2578063b0d5f172146100d0578063ebe4783f146100da575b600080fd5b6100926004803603604081101561007257600080fd5b8101908080359060200190929190803590602001909291905050506100f8565b005b61009c61021f565b6040518082815260200191505060405180910390f35b6100ba610225565b6040518082815260200191505060405180910390f35b6100d861022b565b005b6100e26102b1565b6040518082815260200191505060405180910390f35b816005600082815260200190815260200160002060009054906101000a900473ffffffffffffffffffffffffffffffffffffffff1673ffffffffffffffffffffffffffffffffffffffff163373ffffffffffffffffffffffffffffffffffffffff16146101b0576040517f08c379a0000000000000000000000000000000000000000000000000000000008152600401808060200182810382526028815260200180610e846028913960400191505060405180910390fd5b6005600082815260200190815260200160002060006101000a81549073ffffffffffffffffffffffffffffffffffffffff0219169055807f7cc135e0cebb02c3480ae5d74d377283180a2601f8f644edf7987b009316c63a60405160405180910390a281600681905550505050565b60075481565b60065481565b3073ffffffffffffffffffffffffffffffffffffffff1663ebe4783f6040518163ffffffff1660e01b8152600401602060405180830381600087803b15801561027357600080fd5b505af1158015610287573d6000803e3d6000fd5b505050506040513d602081101561029d57600080fd5b810190808051906020019092919050505050565b60006102bb610d9a565b6102cf60095430630965a0da60e01b610433565b90506103336040518060400160405280600381526020017f67657400000000000000000000000000000000000000000000000000000000008152506040518060600160405280603f8152602001610e22603f9139836104649092919063ffffffff16565b6103b26040518060400160405280600481526020017f70617468000000000000000000000000000000000000000000000000000000008152506040518060400160405280600381526020017f494e520000000000000000000000000000000000000000000000000000000000815250836104649092919063ffffffff16565b6103fe6040518060400160405280600581526020017f74696d6573000000000000000000000000000000000000000000000000000000815250600754836104979092919063ffffffff16565b61042d600860009054906101000a900473ffffffffffffffffffffffffffffffffffffffff1682600a546104ca565b91505090565b61043b610d9a565b610443610d9a565b61045a85858584610753909392919063ffffffff16565b9150509392505050565b61047b82846080015161080390919063ffffffff16565b61049281846080015161080390919063ffffffff16565b505050565b6104ae82846080015161080390919063ffffffff16565b6104c581846080015161082890919063ffffffff16565b505050565b600030600454604051602001808373ffffffffffffffffffffffffffffffffffffffff1660601b815260140182815260200192505050604051602081830303815290604052805190602001209050600454836060018181525050836005600083815260200190815260200160002060006101000a81548173ffffffffffffffffffffffffffffffffffffffff021916908373ffffffffffffffffffffffffffffffffffffffff160217905550807fb5e6e01e79f91267dc17b4e6314d5d4d03593d2ceee0fbb452b750bd70ea5af960405160405180910390a2600260009054906101000a900473ffffffffffffffffffffffffffffffffffffffff1673ffffffffffffffffffffffffffffffffffffffff16634000aea085846105ec87610874565b6040518463ffffffff1660e01b8152600401808473ffffffffffffffffffffffffffffffffffffffff16815260200183815260200180602001828103825283818151815260200191508051906020019080838360005b8381101561065d578082015181840152602081019050610642565b50505050905090810190601f16801561068a5780820380516001836020036101000a031916815260200191505b50945050505050602060405180830381600087803b1580156106ab57600080fd5b505af11580156106bf573d6000803e3d6000fd5b505050506040513d60208110156106d557600080fd5b810190808051906020019092919050505061073b576040517f08c379a0000000000000000000000000000000000000000000000000000000008152600401808060200182810382526023815260200180610e616023913960400191505060405180910390fd5b60016004600082825401925050819055509392505050565b61075b610d9a565b61076b85608001516101006109f5565b508385600001818152505082856020019073ffffffffffffffffffffffffffffffffffffffff16908173ffffffffffffffffffffffffffffffffffffffff16815250508185604001907bffffffffffffffffffffffffffffffffffffffffffffffffffffffff191690817bffffffffffffffffffffffffffffffffffffffffffffffffffffffff191681525050849050949350505050565b6108108260038351610a49565b6108238183610b8e90919063ffffffff16565b505050565b600081126108415761083c82600083610a49565b610870565b61086f826001837fffffffffffffffffffffffffffffffffffffffffffffffffffffffffffffffff03610a49565b5b5050565b6060634042994660e01b60008084600001518560200151866040015187606001516001896080015160000151604051602401808973ffffffffffffffffffffffffffffffffffffffff1681526020018881526020018781526020018673ffffffffffffffffffffffffffffffffffffffff168152602001857bffffffffffffffffffffffffffffffffffffffffffffffffffffffff1916815260200184815260200183815260200180602001828103825283818151815260200191508051906020019080838360005b8381101561095857808201518184015260208101905061093d565b50505050905090810190601f1680156109855780820380516001836020036101000a031916815260200191505b509950505050505050505050604051602081830303815290604052907bffffffffffffffffffffffffffffffffffffffffffffffffffffffff19166020820180517bffffffffffffffffffffffffffffffffffffffffffffffffffffffff83818316178352505050509050919050565b6109fd610e07565b600060208381610a0957fe5b0614610a225760208281610a1957fe5b06602003820191505b81836020018181525050604051808452600081528281016020016040525082905092915050565b60178111610a7657610a708160058460ff16901b60ff161784610bb090919063ffffffff16565b50610b89565b60ff8111610ab857610a9b601860058460ff16901b1784610bb090919063ffffffff16565b50610ab281600185610bd09092919063ffffffff16565b50610b88565b61ffff8111610afb57610ade601960058460ff16901b1784610bb090919063ffffffff16565b50610af581600285610bd09092919063ffffffff16565b50610b87565b63ffffffff8111610b4057610b23601a60058460ff16901b1784610bb090919063ffffffff16565b50610b3a81600485610bd09092919063ffffffff16565b50610b86565b67ffffffffffffffff8111610b8557610b6c601b60058460ff16901b1784610bb090919063ffffffff16565b50610b8381600885610bd09092919063ffffffff16565b505b5b5b5b5b505050565b610b96610e07565b610ba883846000015151848551610bf2565b905092915050565b610bb8610e07565b610bc88384600001515184610cab565b905092915050565b610bd8610e07565b610be9848560000151518585610cf9565b90509392505050565b610bfa610e07565b8251821115610c0857600080fd5b84602001518285011115610c3357610c32856002610c2c8860200151888701610d5a565b02610d76565b5b600080865180518760208301019350808887011115610c525787860182525b60208701925050505b60208410610c7e5780518252602082019150602081019050602084039350610c5b565b60006001856020036101000a03905080198251168184511681811785525050879350505050949350505050565b610cb3610e07565b83602001518310610cd057610ccf846002866020015102610d76565b5b8351805160208583010184815381861415610cec576001820183525b5050508390509392505050565b610d01610e07565b84602001518483011115610d1f57610d1e85600286850102610d76565b5b60006001836101000a0390508551838682010185831982511617815281518588011115610d4c5784870182525b505085915050949350505050565b600081831115610d6c57829050610d70565b8190505b92915050565b606082600001519050610d8983836109f5565b50610d948382610b8e565b50505050565b6040518060a0016040528060008019168152602001600073ffffffffffffffffffffffffffffffffffffffff16815260200160007bffffffffffffffffffffffffffffffffffffffffffffffffffffffff1916815260200160008152602001610e01610e07565b81525090565b60405180604001604052806060815260200160008152509056fe68747470733a2f2f6d696e2d6170692e63727970746f636f6d706172652e636f6d2f646174612f70726963653f6673796d3d444149267473796d733d494e52756e61626c6520746f207472616e73666572416e6443616c6c20746f206f7261636c65536f75726365206d75737420626520746865206f7261636c65206f66207468652072657175657374a26469706673582212207f0fb87baaa60cbf29ac08866cea93e7a303c1241607dd0e169d949b955ecab864736f6c634300060c0033",
  "immutableReferences": {},
  "source": "pragma solidity ^0.6.0;\nimport \"@chainlink/contracts/src/v0.6/ChainlinkClient.sol\";\n\ncontract Pricefeed is ChainlinkClient {\n    uint256 public rupeePrice;\n\n    uint256 public times = 100;\n    address private oracle;\n    bytes32 private jobId;\n    uint256 private fee;\n\n    /**\n     * Network: Kovan\n     * Oracle: Chainlink - 0x2f90A6D021db21e1B2A077c5a37B3C7E75D15b7e\n     * Job ID: Chainlink - 29fa9aa13bf1468788b7cc4a500a45b8\n     * Fee: 0.1 LINK\n     */\n    constructor() public {\n       // setChainlinkToken(0x70d1F773A9f81C852087B77F6Ae6d3032B02D2AB);\n       // oracle = 0x1cf7D49BE7e0c6AC30dEd720623490B64F572E17;\n       // jobId = \"d8fcf41ee8984d3b8b0eae7b74eca7dd\";\n        setPublicChainlinkToken();\n        oracle = 0x2f90A6D021db21e1B2A077c5a37B3C7E75D15b7e;\n        jobId = \"29fa9aa13bf1468788b7cc4a500a45b8\";\n        fee = 0.1 * 10**18; // 0.1 LINK\n    }\n\n    /**\n     * Create a Chainlink request to retrieve API response, find the target price\n     * data, then multiply by 100 (to remove decimal places from price).\n     */\n\n    function requestRupeePrice() public returns (bytes32 requestId) {\n        Chainlink.Request memory request = buildChainlinkRequest(\n            jobId,\n            address(this),\n            this.fulfillRupee.selector\n        );\n        request.add(\n            \"get\",\n            \"https://min-api.cryptocompare.com/data/price?fsym=DAI&tsyms=INR\"\n        );\n        request.add(\"path\", \"INR\");\n        request.addInt(\"times\", int256(times));\n        return sendChainlinkRequestTo(oracle, request, fee);\n    }\n\n    function requestAll() public {\n        this.requestRupeePrice();\n    }\n\n    function fulfillRupee(bytes32 _requestId, uint256 _price)\n        public\n        recordChainlinkFulfillment(_requestId)\n    {\n        rupeePrice = _price;\n    }\n}\n",
  "sourcePath": "/Users/VijayL/Documents/Blockchain/MyProjects/Ethonline/rupia/pricefeed/contracts/contracts/priceFeed.sol",
  "compiler": {
    "name": "solc",
    "version": "0.6.12+commit.27d51765.Emscripten.clang"
  },
  "schemaVersion": "3.3.1",
  "updatedAt": "2020-10-23T22:38:29.819Z",
  "networkType": "ethereum",
  "devdoc": {
    "kind": "dev",
    "methods": {},
    "version": 1
  },
  "userdoc": {
    "kind": "user",
    "methods": {
      "constructor": "Network: Kovan Oracle: Chainlink - 0x2f90A6D021db21e1B2A077c5a37B3C7E75D15b7e Job ID: Chainlink - 29fa9aa13bf1468788b7cc4a500a45b8 Fee: 0.1 LINK",
      "requestRupeePrice()": {
        "notice": "Create a Chainlink request to retrieve API response, find the target price data, then multiply by 100 (to remove decimal places from price)."
      }
    },
    "version": 1
  }
}